:03000000020A9061
:0C0A9000787FE4F6D8FD75815D020AD77E
:101156003F065B4F666D7D077F6F40000000000015
:100F7100011F00010C000213000002170000020D06
:100F8100000002300000023A00001020003F003F44
:100F9100003F003F003F003F003F003F02150000BF
:040FA100023C00010D
:0D117500D288D28AD2AFD2A8D2AAD2A922A3
:100C960020B024E51A451970230518E518700205D9
:100CA60017C39402E51794004005E4F517F5187587
:100CB6001900751A018005E4F519F51A20B13FE50A
:100CC6001C451B703EF517F518F51DF51EF534F598
:100CD60035F532F533F530F531050CAF0CFEEF6422
:100CE600046006753C00753D0AD3EF9404EE6480FB
:100CF60094804003E4F50C751B00751C0122E4F595
:040D06001BF51C229B
:1007A200E53B453A701412068BE518640145176063
:1007B200030208ABF53A753B0122E53B6401453A79
:0C07C200700A120959753A00753B0222BA
:1007CE00120FAB121140E55B540F9011569375202A
:1007DE0000F521E55BC4540F93752200F5237524B3
:1007EE0000752540E55C540F93752600F527E55CF2
:1007FE00C4540F93752800F529752A00752B40E512
:10080E001845177012E55D540F93752C00F52DE504
:10081E005DC4540F0208A5D3E55D941274809480D4
:10082E00E55D540F4063754000F541E55DC4540F1E
:10083E00754200F543AE42FF7C007D0A1203E1E5EE
:10084E00412FCFE5403ECF24F4F54BEF34FFF54A70
:10085E00FEAF4B1203F38C408D41AE4AAF4B7C0082
:10086E007D0A1203F38E428F4374562541F582742E
:10087E00113540F583E493752C00F52D74562FF544
:10088E008274113EF583E4800E90115693752C0000
:0D089E00F52DE55DC4540F93752E00F52F68
:0108AB00222A
:0C068B00AF1EAB33AA32AD35AC34AE1D4F
:080697008E4C8F4D8D828C8387
:10069F007C007D0A1203F38C368D37AE4CAF4D7C48
:1006AF00007D0A1203F38E388F397C007D0AAF82EA
:1006BF00AE831203F38C448D45AE83AF827C007DF5
:1006CF000A1203F38E468F477C007D0AAF03AE02FA
:1006DF001203F38C408D41AE02AF037C007D0A12F2
:1006EF0003F38E428F43E4F54EF54FE4FFFE120DF8
:1006FF00C974562537F5827411353612100D7F01E6
:10070F007E00120DC974562539F5827411353812D1
:10071F00100D7F027E00120DC990116012100F7F15
:10072F00037E00120DC974562545F58274113544A8
:10073F0012100D7F047E00120DC974562547F582E5
:10074F007411354612100D7F057E00120DC99011E0
:10075F006012100F7F067E00120DC974562541F5E9
:10076F00827411354012100D7F077E00120DC9746F
:10077F00562543F5827411354212100D054FE54F82
:10078F007002054EC39419E54E64809480500302A5
:02079F0006FA58
:0107A1002235
:100F3400051EE51E7002051DFF12068DC3E51E94F5
:100F44003BE51D9400400DE4F51DF51E0535E53522
:100F540070020534C3E535943BE5349400400DE458
:0D0F6400F534F5350533E533700205322212
:100D6A00D3E51E9400E51D9400400AE51E151E7089
:100D7A003F151D803BD3E5359400E5349400400AC5
:100D8A00E5351535701D15348019D3E5339400E522
:100D9A003294004016E5331533700215327534006B
:100DAA0075353B751D00751E3B8005E4F517F51872
:0F0DBA00AB33AA32AD35AC34AF1EAE1D02069777
:100B9C00E53145307029051EE51E7002051DC39414
:100BAC003BE51D94004018D3E535943BE5349400A7
:100BBC00500DE4F51DF51E0535E53570020534E5DF
:100BCC00316401453070290535E53570020534C3B3
:100BDC00943BE53494004018D3E5339417E53294F4
:100BEC0000500DE4F534F5350533E533700205326C
:100BFC00E5316402453070160533E5337002053279
:0F0C0C00D39417E53294004005E4F532F5332216
:10095900AE32AF337C007D0A1203F3EFC4F8540FB3
:10096900C868FBEEC454F048FAAE32AF337C007D60
:100979000A1203F3ED2BF54DEC3AF54CAE34AF35D5
:100989007C007D0A1203F3EFC4F8540FC868FBEE2C
:10099900C454F048FAAE34AF357C007D0A1203F333
:1009A900ED2BF54FEC3AF54EAE1DAF1E7C007D0ADE
:1009B9001203F3EFC4F8540FC868FBEEC454F048AF
:1009C900FAAE1DAF1E7C007D0A1203F3ED2BF55123
:1009D900EC3AF550E4FD7F8E120E1DAD4D7F841269
:1009E9000E1DAD4F7F82120E1DAD517F80120E1D5F
:0709F9007D807F8E020E1DC0
:100A0000E50C6403700FAB49AA48AD09AC08AF3FD1
:100A1000AE3E120697121140E55C540FFB7A00E5DA
:100A20005CC4540FFF7E007C007D0A1203E1EF2BB3
:100A3000F54BEA3EF54AE55D540FFBE55DC4540F06
:100A4000FF7E001203E1EF2BFFEA3EFEE54BB50906
:100A500015E54AB50810EFB5490CEEB54808751311
:100A6000007514018005E4F513F514E514640145DF
:100A700013701C0516E51670020515120B1CE51601
:0F0A8000640345157009F508750964F515F51639
:010A8F002244
:030013000210CC0C
:1010CC00C0E0C0D0E50C6401700EF51DF51EF534C2
:1010DC00F535F532F5338003120B9CD0D0D0E032CD
:03000300021038B0
:10103800C0E0C0D0E50C640460170531E5317002EA
:101048000530C39403E530940040067530007531CF
:0610580000D0D0D0E03210
:1008AC0012068BE518640145177009E50C6401709C
:1008BC0003120F34E518640145177030E50C64021F
:1008CC00702A120D6AE53345327011E535453470E6
:1008DC000BE51E451D7005F513751401E514640137
:1008EC0045137008120B1CE4F513F514E51864019C
:1008FC0045177009E50C64037003120A00E51845EE
:10090C00177049AF0CEF60446403701FF548F5494C
:10091C00F508F509F53EF53F8532488533498534B0
:10092C0008853509851D3E851E3F22851D0A851EBD
:10093C000B85341185351285320F853310AB10AA17
:0D094C000FAD12AC11AF0BAE0A12069722D0
:100C1B00C2A0D2A1D2A6D2A7E4F50C121175F5325F
:100C2B00F533F534F535F51DF51ED2B0D2B1F50F10
:100C3B00F510F511F512F50AF50BE50C14601D1402
:100C4B006022146029146033240470EEC2A0D2A178
:100C5B00D2A6D2A71207A2120A0080DED2A0C2A18E
:100C6B00D2A68006D2A0D2A1C2A6D2A78008D2A0BB
:100C7B00D2A1D2A6C2A71208AC80BFC2A0D2A1D269
:0B0C8B00A6D2A712112912055A80AF53
:100FAB00E4F555F556E55625E02420F808E6F580DE
:100FBB00AF56AE55120DC97F017E00121017E4F526
:100FCB00800556E55670020555C39408E5556480B7
:040FDB00948040D1ED
:010FDF0022EF
:04055A008E4A8F4BEB
:10055E00784C7C007D007BFF7A1179617E007F05EF
:10056E001203BBC3E54A648094805016752E007545
:10057E002F40E54B154B7002154A634BFF634AFF44
:10058E008005E4F52EF52FAC4AAD4BEC1202318FFF
:10059E00548E538D528C51E4FFFE7DC87C40AB547B
:1005AE00AA53A952A851120126E4FBFAF9783F1278
:1005BE00003512026A8E4A8F4B75200075213975EF
:1005CE002200752363AE4AAF4B7C007D6412044853
:1005DE007E007F0ACFCDCFCECCCE12044874562FDC
:1005EE00F58274113EF583E493752600F527AE4A25
:1005FE00AF4B7C007D0A12044874562DF58274119F
:10060E003CF583E493752400F525AE4AAF4B7C038D
:10061E007DE81204487E007F64CFCDCFCECCCE12C3
:10062E00044874562FF58274113EF583E49344808A
:10063E00752800F529AE4AAF4B7C277D1012044871
:10064E007E037FE8CFCDCFCECCCE12044874562F8A
:10065E00F58274113EF583E493752A00F52BAE4AAC
:10066E00AF4B7C277D1012044874562FF5827411FF
:0D067E003EF583E493752C00F52D020FABC3
:100DC900EE7050EFB40800504A900DD9F8282873F6
:100DD900020DF1020DF5020DF9020DFD020E0102DF
:100DE9000E08020E0F020E16C2A4800EC2A48011B4
:100DF900C2A48014C2A48017D2A4C2A3C2A222D2C0
:100E0900A4C2A3D2A222D2A4D2A3C2A222D2A4D281
:040E1900A3D2A2229C
:0A100D00F583E493F5807F027E0076
:10101700758901758CFC758A1875A887E4F50DF537
:101027000ED28CC3E50E9FE50D9E40F7C2A9C28C78
:011037002296
:03000B0002105E82
:10105E00C0E0C0D075D000C006C007758CFC758A84
:10106E0018050EE50E7002050D120C96D007D0066F
:05107E00D0D0D0E032EB
:10110B00D3EF9400EE940040147D6E7C00ED1D70C7
:0D111B00011CED4C70F7EF1F70E61E80E325
:0111280022A4
:100FE000C2AFC2B77F467E00EF1FAC0670011E4C39
:100FF00070F6D2B7FEFF30B7110FBF00010ED3EF6E
:0C1000009488EE941340EF7F00227F01E3
:01100C0022C1
:0C0E6800120FE07F017E0012110B7FCC06
:100E7400C2AFE4FBFAC2B7054CE54C7002054BEF78
:100E84001392B7754B00754C06E54C154CAC4B7082
:100E940002154B4C70F3D2B7EFC313FF0BBB000129
:090EA4000AEB64084A70CED2AFDB
:010EAD002222
:100EF200C2AF7D087C00C2B70FBF0000D2B70FBFE0
:100F020000000FBF0000A2B7E433C4333333548070
:100F1200FBE9C3134BF97E007F04EF1FAA067001A1
:100F22001E4A70F6ED1D70011CED4C70C9D2AFAFB8
:010F320001BD
:010F3300229B
:0F116600120E687F44120E747F0A7E0002110B76
:08118B00120E687FBE020E7413
:10112900E4FFFE12116612118B120EF28F4A120E93
:06113900F2EFFEE54AFFA3
:01113F00228D
:050FA500035B000012D7
:100E1D00C2AFC2B500C2B600D2B500E4FEEEC394B7
:100E2D0008748094805011EF1392B4EFC313FFD266
:100E3D00B600C2B6000E80E5E4FEEEC394087480E1
:100E4D0094805011ED1392B4EDC313FDD2B600C2D0
:0A0E5D00B6000E80E5C2B500D2AF6A
:010E67002268
:100D0A00C2AFC2B500C2B600D2B500E4FDEDC394CD
:100D1A0008748094805011EF1392B4EFC313FFD27A
:100D2A00B600C2B6000D80E500E4FDEDC394087478
:100D3A00809480501AA2B4E433FFC433333354800E
:100D4A00FCEEC3134CFED2B600C2B6000D80DCC264
:0F0D5A00B500D2B600C2B400D2B400D2AFAF061B
:010D69002267
:101140007F81120D0A8F5B7F83120D0A8F5C7F8572
:06115000120D0A8F5D2262
:1010A800AB07AA06EA3395E0F9F8E47F607EEAFD2B
:1010B800FC120EAE8E578F58E557C313F559E558F5
:0410C80013F55A22A0
:100016008FCB8DCA8FCD8DCCC2CFD2CAD2ADD2AF47
:0100260022B7
:09118200C2ADC2CAC2CFD2A5223F
:1010EC00D3EF9400EE94004015E4FDFC0DBD00011F
:0E10FC000CED647B4C70F5EF1F70E51E80E27A
:01110A0022C2
:081083007F22AD5AAC597EFE3C
:10108B008C4C8D4DAB07AA06EB4A6007EAFFAD030C
:0D109B00120016AF4DAE4C1210EC02118287
:100B1C007F8C7E001210A8AD58AC577F227EFE123F
:100B2C00108B7F9A121085AD5AAC597F857EFE12C0
:100B3C00108BAD5AAC597F567EFE12108B1210835F
:100B4C00AD58AC577FC87EFD12108BAD5AAC597F97
:100B5C00C87EFD12108B121083AD5AAC597F9A7E51
:100B6C00FE12108BAD5AAC597F857EFE12108BADE8
:100B7C005AAC597F567EFE12108BAD5AAC597F6E13
:100B8C007EFE12108BAD58AC577F857EFE02108B0B
:03002B00020006CA
:05000600B2A5C2CF32DB
:10002E000202D6E86480F8E933E83360110460F028
:10003E00ED33EC337009E8FCE9FDEAFEEBFF220438
:10004E0060DED3EB9FEA9EE99DE8C2E78CF0C2F733
:10005E0095F0400CE8CCF8E9CDF9EACEFAEBCFFBFF
:10006E001202A185D0F05804700320D5B3E80470B5
:10007E00075002B2D50202E092D5EC0460F7E4CC50
:10008E00C0E0C398F8603B94186008400DD0E0FBC8
:10009E000202B8E4FBFAC9FC8028E830E406E4C9A1
:1000AE00FBE4CAFCE830E305E4C9CACBFCE854071C
:1000BE006010F8C3E913F9EA13FAEB13FBEC13FC27
:1000CE00D8F130F52FC3E49CFCEF9BFFEE9AFEEDCA
:1000DE0099FDD0E0FBEF4E4D4C701222DB03020275
:1000EE00DDEC2CFCEF33FFEE33FEED33FDED30E7B0
:1000FE00EB0202B8EF2BFFEE3AFEED39FDD0E0FB3E
:10010E0050130BBB00030202E0ED13FDEE13FEEFE6
:08011E0013FFEC13FC0202B810
:10012600EC4D6011E8497017ED33EC3304600DE4D3
:10013600FCFFFEFD22E933E8330470F80202D61212
:1001460002A158046009E4CC248150062850090213
:1001560002E02840030202DDC0E0EB4A7044B980A9
:1001660006D0E0FB0202CCEF4E701CBD8008EBFF10
:10017600EAFEE9FD80EBE98DF0A4FEE5F002020F50
:10018600E9CDF9EAFEEBFFEF89F0A4FCE5F0CE89B4
:10019600F0A42EFFE435F0CD89F0A42DFEE435F071
:1001A6008067EF4E7005BD80D780C3EF8BF0A4AC9F
:1001B600F0EE8BF0A42CFCE435F0F8EF8AF0A42CDA
:1001C600E5F038FCE433CB8DF0A42CFCE5F03BF8ED
:1001D600EE8AF0A42CFCE5F038F8E433CF89F0A4DD
:1001E6002CFCE5F038CF3400CE89F0A42FFFE5F0E3
:1001F6003EFEE433C98DF0A42EFEE5F039CD8AF03B
:10020600A42FFFE5F03EFEE43DFD33D0E0FB5007B2
:100216000BBB000F0202E0EC2CFCEF33FFEE33FECB
:06022600ED33FD0202B8F9
:10022C0075F020800E75F010800575F0087D007E4D
:10023C00007F003392D530D50312047EEC3340108E
:10024C00EF33FFEE33FEED33FDEC33FCD5F0ED2256
:0E025C00E5F0247EA2D513CC92E7CDCEFF2292
:10026A00EDD2E7CD33EC3392D524814006E4FFFE8C
:10027A00FDFC22FCE4CFCECDCC24E0501174FF80EB
:10028A00EDC3CC13CCCD13CDCE13CECF13CF047088
:07029A00F030D5DE02047E06
:1002A100E9D2E7C933E833F892D5EDD2E7CD33ECA3
:0702B10033FC5002B2D5221C
:1002B800EC30E7100FBF000C0EBE00080DBD0004A7
:1002C8000BEB6014A2D5EB13FCED92E7FD2274FF53
:1002D800FCFDFEFF22E480F8A2D574FF13FC7D80AC
:0302E800E480EFC0
:100A9C00020C1BE493A3F8E493A34003F68001F249
:100AAC0008DFF48029E493A3F85407240CC8C3335B
:100ABC00C4540F4420C8834004F456800146F6DF2A
:100ACC00E4800B0102040810204080900F71E47E3A
:100ADC00019360BCA3FF543F30E509541FFEE4931F
:100AEC00A360010ECF54C025E060A840B8E493A3E6
:100AFC00FAE493A3F8E493A3C8C582C8CAC583CA11
:100B0C00F0A3C8C582C8CAC583CADFE9DEE780BEC8
:010FAA000046
:1002EB00E709F608DFFA8046E709F208DFFA803EF5
:1002FB0088828C83E709F0A3DFFA8032E309F608E2
:10030B00DFFA8078E309F208DFFA807088828C8349
:10031B00E309F0A3DFFA806489828A83E0A3F608FD
:10032B00DFFA805889828A83E0A3F208DFFA804CD7
:10033B0080D280FA80C680D4806980F280338010AE
:10034B0080A680EA809A80A880DA80E280CA803317
:10035B0089828A83ECFAE493A3C8C582C8CCC5838F
:10036B00CCF0A3C8C582C8CCC583CCDFE9DEE7805F
:10037B000D89828A83E493A3F608DFF9ECFAA9F0DE
:10038B00EDFB2289828A83ECFAE0A3C8C582C8CC34
:10039B00C583CCF0A3C8C582C8CCC583CCDFEADE4D
:1003AB00E880DB89828A83E493A3F208DFF980CCAF
:1003BB0088F0EF60010E4E60C388F0ED2402B404A8
:1003CB000050B9F582EB2402B4040050AF2323454F
:0603DB00822390033B7336
:1003E100EF8DF0A4A8F0CF8CF0A428CE8DF0A42E30
:0203F100FE22EA
:1003F300BC000BBE0029EF8DF084FFADF022E4CCEE
:10040300F875F008EF2FFFEE33FEEC33FCEE9DECB6
:10041300984005FCEE9DFE0FD5F0E9E4CEFD22EDFC
:10042300F8F5F0EE8420D21CFEADF075F008EF2F46
:10043300FFED33FD4007985006D5F0F222C398FD37
:050443000FD5F0EA22D4
:10044800C2D5EC30E709B2D5E4C39DFDE49CFCEECF
:1004580030E715B2D5E4C39FFFE49EFE1203F3C351
:10046800E49DFDE49CFC80031203F330D507C3E44C
:060478009FFFE49EFE223E
:100EAE00C2D5E830E70FB2D5E4C39BFBE49AFAE46F
:100EBE0099F9E498F8EC30E717B2D5120EE4120463
:100ECE00C8E4C39BFBE49AFAE499F9E498F880032A
:100EDE001204C830D50DE4C39FFFE49EFEE49DFDD1
:040EEE00E49CFC2262
:0E047E00C3E49FFFE49EFEE49DFDE49CFC228F
:10048C0075F008758200EF2FFFEE33FECD33CDCC27
:10049C0033CCC58233C5829BED9AEC99E5829840AA
:1004AC000CF582EE9BFEED9AFDEC99FC0FD5F0D687
:1004BC00E4CEFBE4CDFAE4CCF9A88222B800C1B9B1
:1004CC000059BA002DEC8BF084CFCECDFCE5F0CBEF
:1004DC00F97818EF2FFFEE33FEED33FDEC33FCEB28
:1004EC0033FB10D703994004EB99FB0FD8E5E4F9E3
:1004FC00FA227818EF2FFFEE33FEED33FDEC33FCD0
:10050C00C933C910D7059BE99A4007EC9BFCE99AC3
:10051C00F90FD8E0E4C9FAE4CCFB2275F010EF2F08
:10052C00FFEE33FEED33FDCC33CCC833C810D70708
:10053C009BEC9AE899400AED9BFDEC9AFCE899F843
:0E054C000FD5F0DAE4CDFBE4CCFAE4C8F922D6
:00000001FF
